:100000000C942A000C943E000C943C000C943C0090
:100010000C943C000C943C000C943C000C943C0070
:100020000C943C000C943C000C943C000C943C0060
:100030000C943C000C943C000C943C000C943C0050
:100040000C943C000C943C000C943C000C943C0040
:100050000C943C0011241FBECFE5D4E0DEBFCDBF21
:1000600020E0A0E6B0E001C01D92A136B207E1F7A2
:100070000E9482000C948D000C9400001F920F923D
:100080000FB60F9211248F939F93809160008F5F22
:10009000809360009BB381E089278BBB9F918F91F8
:1000A0000F900FBE0F901F901895F89481E08ABBB7
:1000B00085B7836085BF8BB780648BBF08958AB195
:1000C00088618AB980B58E6880BD10BC83E389B928
:1000D00008955D9BFECF8CB90895109260007894CE
:1000E0002FEF89E698E1215080409040E1F700C071
:1000F0000000F89480916000082E000C990B0E947B
:10010000690008950E9455000E945F0082E790E018
:0E0110000E9469000E946D00FDCFF894FFCFA1
:00000001FF
